:020000040001F9
:10B00000A85E0020D5B00100EFB00100F1B0010052
:10B010000000000000000000000000000000000030
:10B02000000000000000000000000000F3B001007C
:10B030000000000000000000F5B00100F7B00100C2
:10B0400009B60100F9B001002DB801009DB601005C
:10B05000F9B00100000000004DB4010085B201000C
:10B06000F9B00100F9B00100F9B00100F9B0010038
:10B07000F9B00100F9B00100F9B00100F9B0010028
:10B08000F9B001005DB60100F9B00100F9B00100AE
:10B09000DFB60100F9B00100E9B60100F9B0010026
:10B0A000F9B00100F9B0010000000000000000004C
:10B0B0000000000000000000000000000000000090
:10B0C0000348854600F0AAF800480047CDE5010096
:10B0D000A85E00200321094802680A43026008486C
:10B0E00002680A4302600748804707480047FEE7B6
:10B0F000FEE7FEE7FEE7FEE7FEE70000240500406E
:10B100005405004009B70100C1B0010030B50B463D
:10B11000014600202022012409E00D46D5409D4231
:10B1200005D31D469540491B2546954040191546B7
:10B13000521E002DF1DC30BD00487047302D02005A
:10B1400003460B439B0703D009E008C9121F08C040
:10B15000042AFAD203E00B780370401C491C521EEB
:10B16000F9D27047D2B201E00270401C491EFBD2F6
:10B1700070470022F6E710B513460A460446194602
:10B18000FFF7F0FF204610BD421C0178401C00294B
:10B19000FBD1801A70470321001D401E0378120264
:10B1A0001A43491EF9D5104670470346032208701A
:10B1B000000A491C521EFAD518467047F0B51FB454
:10B1C0000646002082B005464024019100901BE015
:10B1D000019922460F46304600F042F8049A059B3A
:10B1E000801A994110D310461946224600F028F8DB
:10B1F000361A8F410197224601200021009F00F05E
:10B200001FF838184D4100902046641E0028DFDCEE
:10B21000019B00982946324607B0F0BD064C012537
:10B22000064E05E0E36807CC2B430C3C98471034EE
:10B23000B442F7D3FFF748FF782D0200982D0200A3
:10B2400010B5202A04DB0146203A9140002010BDB1
:10B25000914020239C1A0346E3401943904010BDBF
:10B2600010B5202A04DB0846203AD040002110BD4A
:10B270000B46D340D0402024A21A914008431946DF
:10B2800010BD0000FEB5134C0026E0680125124FEA
:10B29000002810D000F09AFD00280BD00120B860E3
:10B2A00068460670E0680190217C68460181A574BB
:10B2B00021688847FEBD094806600120B86008483B
:10B2C000066069460D7080688880A57468462168AC
:10B2D000EFE70000EC5400200073004000710040D4
:10B2E0000075004000B5224887B00FC8049301AB39
:10B2F00007C31C2168468171192141711D2101710B
:10B300001B481C4A01A9083803F03CFC002801D066
:10B3100000F0A2FE102003F06FFE112003F06CFE7F
:10B32000122003F069FE132003F066FE132003F0E1
:10B33000ABFE112003F0A8FE122003F0A5FEAB2007
:10B3400069460875102003F087FE00200346009030
:10B350000748012205A9083803F09EFC102003F0DD
:10B3600093FEFF20F53003F067FB07B000BD00003F
:10B370008008020069FF01007CB5054613482C4691
:10B38000044000F029F800F04BF8202069460871CD
:10B390006802400E48710E49280A084069468871C3
:10B3A000CC71102003F058FE0020034600900422C8
:10B3B00001A9084803F070FC102003F065FE00F0BE
:10B3C0000BF8C82003F038FB7CBD000000F07F00C4
:10B3D000F07F0000780802003EB510480068029037
:10B3E000102003F039FE0020034600900B48012294
:10B3F00002A9001D03F050FC012407E007480022C9
:10B4000001AB1146001D009403F046FC684600792C
:10B41000C007F3D1102003F037FE3EBD74080200D0
:10B420001CB5062069460871102003F015FE0020A7
:10B4300003460090012201A9034803F02DFC1020CF
:10B4400003F022FE1CBD000078080200F0B50024C5
:10B45000FF268BB00136012527460694304603F0BF
:10B4600053FE002807D054484068284203D0304695
:10B4700003F042FE2C43361D6D007F1CB6B2042F34
:10B48000ECD3FF257D35284603F03EFE002809D089
:10B49000284603F031FE6807044306AA0121002074
:10B4A00003F016FE454D200714D001270026274241
:10B4B0000CD04348B200111808690969C004C00ED5
:10B4C0008903AA58890F002A00D090477F00761C74
:10B4D000042EECD3002C6DDA00200890401E63E0AF
:10B4E000281940300778B906890E0091002141568D
:10B4F000491C49D009A9009803F08EFA002843D0CE
:10B50000B8090190009801F04DFA80002F58019879
:10B51000002F02D0032802D00DE0032834D1009878
:10B5200008ABC20841079446985C490F01228A4043
:10B53000104362469854009805210907800040187E
:10B54000072109024018006806A98003800F0290B5
:10B55000009803F061FA0028029802D0022802D075
:10B5600012E0032810D10198032808D1029802287C
:10B570001ED00221009803F05DFD761CF6B2002F6C
:10B5800002D001990098B847641C042CA8D3002E5F
:10B5900010D06A460121002003F09AFD0699009818
:10B5A000884207D00690089800263446099097E70D
:10B5B0000321DFE70BB0F0BD0063004068540020BA
:10B5C000006500408307FF22DB0E9A408907090EC1
:10B5D000994000280BDA0007000F08388308084854
:10B5E0009B001818C36993430B43C36170478308DA
:10B5F00004489B001B181868904308431860704764
:10B6000000ED00E000E400E0F8B5FF20013003F0B9
:10B610000BFA002401250E4E0E4F002807D00E48CD
:10B6200004600120B0607D70002001F089FBFF20E4
:10B63000053003F0F9F9002808D00748001D046020
:10B640000220B060BD70012001F07AFBF8BD00005F
:10B6500000030040545400200001004010B506498A
:10B660000020086048608860C8600349403908606D
:10B67000486004F0FFFD10BD4011014010B50024EA
:10B68000142003F0F9FC002800D10224152003F057
:10B69000F3FC002800D1641C204610BD70B5FF21CA
:10B6A0000B480931094C00254550214604F03CFE69
:10B6B000002809D1A07EFF2801D003F0F5FC6576B3
:10B6C00025712168201D884770BD0000CC540020E2
:10B6D0000030004010B50003FFF74EFE10BD10B55E
:10B6E00004F03AFD10BD000010B50648406800287F
:10B6F00005D08047002801D000F0AEFC10BD02F05C
:10B700000FFD10BDB020002010B502F07BFD002819
:10B7100005D01F491D484860C8131E4988611E484E
:10B72000018CC9B201290BD1828C120708D1028D7C
:10B730001206120F042A03D1828D1206120F0AD0AC
:10B74000012921D1818C09071ED1018D0906090F1C
:10B750000A2904D007E0114A01219160F5E7828DA2
:10B760001206120F05D00D290ED1808D0006000F94
:10B770000AD10B480168012904D00A490160016817
:10B780000129FCD1C021416110BD0000DFFF07C0CD
:10B7900000050040006C0040C00F00F000060040B3
:10B7A00000EC06407593000010B502F0EFFD10BDEF
:10B7B00070B51D4C2088410602D540218843208069
:10B7C00080B281062025002905DAA843208002F0F6
:10B7D0003DFD01F077FE2088810707D502218843CF
:10B7E00020801148083001882943018020884107C2
:10B7F00002D504218843208080B2010602D5802131
:10B800008843208080B2C10706D0400840002080D5
:10B8100002F020FB01F0A6FE2088C10503D5FF2120
:10B8200001318843208070BD2020002010B50249DE
:10B83000024804F005FE10BDB05400200020004076
:10B84000F3B58025070381B0002468012946FFF77E
:10B850005DFC064609E0204668430146029AC0198D
:10B860008A18294602F014FA641CA642F3D8FEBDD9
:10B87000F3B581B004468025FFF72CFF2703002491
:10B8800068012946FFF742FC064609E02046684366
:10B890000146029AC0198A18294602F023FA641C4C
:10B8A000A642F3D8FEBD00000FB41CB50A46521ED6
:10B8B0000192009007A9064B6A46069800F034F8FA
:10B8C000009A002111701CBC08BC04B0184700008D
:10B8D0009DBD010030B47446641E2578641CAB42E3
:10B8E00000D21D46635D5B00E31830BC184702E0E0
:10B8F00008C8121F08C1002AFAD1704770470020FB
:10B9000001E001C1121F002AFBD17047202804DA90
:10B91000012181400348014201D0012070470020ED
:10B9200070470000FC06FFBCFFB591B00F4605460E
:10B93000002606E025280AD0149A139990476D1C1A
:10B94000761C28780028F5D1304615B0F0BD0024CB
:10B9500000940121F34A029400E004436D1C2B780B
:10B960000846203B98401042F7D128782A280ED06C
:10B97000022128780246303A092A15D8009A0A236B
:10B980005A43303A80180C436D1C0090F1E701CF08
:10B990000090002805DA012040030443009840424B
:10B9A0000090022004436D1C28782E2815D1042015
:10B9B000044368786D1C2A280AD101CF6D1C0290BF
:10B9C0000BE002990A225143303940186D1C029055
:10B9D0002878014630390929F3D928786C2810D005
:10B9E00006DC4C281AD068280ED06A2817D104E04B
:10B9F000742813D07A2812D110E0012040050443A6
:10BA00000CE00121090501E0032109050C436978D7
:10BA1000814203D10120000524186D1C6D1C28787B
:10BA200003906E281ED00CDC632831D004DC002883
:10BA30008AD0582811D1B2E064287BD069280CD173
:10BA400078E073282DD004DC6F2870D0702804D1E2
:10BA5000A7E075286CD078286BD0149A139990477A
:10BA6000761C62E06002400F022807D003280AD04B
:10BA7000042838680AD006603F1D56E03868F11780
:10BA800006604160F8E738680680F5E70670F3E77E
:10BA90003878694608740020487404A8039001208F
:10BAA00003E0386803900020C0433F1D61070FD5B5
:10BAB000002101E00199491C029A0191914213DA97
:10BAC0008142F7DB019A0399895C0029F2D10BE0EE
:10BAD000002101E00199491C01918142FADB019AA0
:10BAE0000399895C0029F5D101990098139A401AAD
:10BAF00000902146149B00F03BF9019980194618EB
:10BB000007E0039803990078491C0391149A13994C
:10BB100090470198401E0190401CF2D12146149B91
:10BB2000139A009800F014F986196D1C09E741E09A
:10BB300033E034E00A200021049005916002410FB7
:10BB4000022905D001CFC2179446032905D007E08A
:10BB5000FF1DFF08FF0003CF06E000B2C2179446A6
:10BB6000042902D140B2C1178C4600226146944597
:10BB700006DA0A460021404291418C462D2102E01E
:10BB8000210504D52B216A461176012103E0E10746
:10BB900001D02021F7E7019154E00A200BE01020AA
:10BBA00009E010200490002104200443082005919E
:10BBB000029003E008200021059104906002410FEB
:10BBC000022905D001CF00229446032906D006E0C1
:10BBD000FF1DFF08FF0003CF8C4603E080B204295D
:10BBE00000D1C0B20021019121072BD50399702902
:10BBF00006D0049A1021059B4A401A4305D00EE056
:10BC000040216A461176012108E06146014306D0D1
:10BC100030216A4611760399517602210191049AE6
:10BC20000821059B4A401A430CD16146014301D1CA
:10BC3000610707D530216A461176012101910299E9
:10BC4000491E02910399582904D037A103910FA9E5
:10BC50000F910DE039A1F9E76146059B049AFFF7C2
:10BC6000ADFA039B8C469B5C0F9A521E0F92137089
:10BC700061460143F0D10F9807A9081A20300390BC
:10BC8000600704D5012000048443029801E00120EC
:10BC900002900399884201DD401A00E0002041181B
:10BCA0000290019809180098401A0090E00306D409
:10BCB0002146149B139A009800F05AF88619002028
:10BCC000049008E006A9085C149A13999047049818
:10BCD000401C761C049001998842F3DBE0030CD5EC
:10BCE0002146149B139A009800F042F8861904E04C
:10BCF000149A302013999047761C0299481E02909E
:10BD00000029F5DC08E00F980F990078491C0F9185
:10BD1000149A13999047761C0399481E03900029A2
:10BD2000F1DCFBE609280100303132333435363797
:10BD30003839616263646566000000003031323377
:10BD40003435363738394142434445460000000017
:10BD5000F8B5044600251E461746880404D405E0BD
:10BD600039462020B0476D1C641EF9D52846F8BD21
:10BD7000FFB50446002581B01E46C80301D5302713
:10BD800000E02027880404D505E038460399B04731
:10BD90006D1C641EF9D5284605B0F0BD4A68002A1E
:10BDA00006D00A68531C0B6010704868401E48603B
:10BDB000704700001CB5044903C900900191684612
:10BDC00002F0E4FD1CBD00007C2C020070B514499B
:10BDD0000020124B0860134908608C681248427CAE
:10BDE000C5685600521CAC53D2B24274047CA242C5
:10BDF00012D2846800226468002C0AD00122846078
:10BE00002068486001200860002A00D018600020E7
:10BE100070BD44688460F3E7012070BD007000408D
:10BE20000071004000750040EC540020F7B584B06C
:10BE3000064600251788158020300290407B144666
:10BE4000002806D03A462146059800F0DBFC0500A4
:10BE500009D1B078002823D0059886462088001D97
:10BE6000B84202D90C2007B0F0BD684679DF00283F
:10BE7000F9D1218803207246505420881921401C92
:10BE800080B22080115420887146401C80B22080EE
:10BE900041186846008804F068FB2188401820801B
:10BEA000F078002817D0218803230A46F356C91CCE
:10BEB0000598B942D6D80221815421880122491C13
:10BEC00089B2218042542188491C89B2218043547F
:10BED0002088401C20807068002817D0218800230B
:10BEE000C3560A46C91C0598B942BBD802218154E1
:10BEF00021880A22491C89B2218042542188491C88
:10BF000089B2218043542088401C20803089002839
:10BF10000AD0009430460197062202210830059B82
:10BF200004F08CFB05009ED1308A00280AD00094D2
:10BF300030460197072203211030059B04F07EFB59
:10BF4000050090D1308B00280AD00094304601972C
:10BF5000152214211830059B04F070FB050082D1D6
:10BF6000306A002806D03B462246059900F064FF5F
:10BF70000500D8D1706A002806D03B4622460599B4
:10BF800002F02AFC0500CED10298007B002807D0E1
:10BF90003B4622463046059903F0A2FE0500C2D179
:10BFA0003078002807D03B4622463046059902F0FB
:10BFB0009EFC0500B7D1284655E70000174A00212E
:10BFC000535C002B01D0012203E0491C0629F7D362
:10BFD00000221349012806D002280BD0032810D0D4
:10BFE000042818D112E04878002803D0002A01D094
:10BFF000012070478878002803D0002A01D0022051
:10C000007047C878002801D00320704708790028BD
:10C0100001D0042070470020704700004D20002010
:10C020006C52002070B50D460646144604A101204E
:10C0300003F0F8F922462946304600F019F870BDA1
:10C040004150505F4552524F523A4552524F523A28
:10C05000466174616C0D0A000EB5002102900091DA
:10C060006A4601910148FFF7DDFF0EBD0140000067
:10C0700018B501246B461C701B78144B186059606E
:10C080009A601349401807D001280FD1DA60D868A8
:10C0900000889861D86807E01A611869806858615B
:10C0A00018690088986118694068D86118685868EC
:10C0B0009868D868186958699869D86972B66846E6
:10C0C00000780028FBD162B618BD000000550020A2
:10C0D000FFBFFFFF094B5B68002B07D0002A07D08A
:10C0E000002805D00068037C002B03D0082070478F
:10C0F000072070474174426100207047882000206B
:10C10000FFB507469007002581B01E46144600285B
:10C1100025D1002C23D003F0F3FC3046114EF06003
:10C12000304610300570457002998170446075602A
:10C13000357001240C487570240504600321142017
:10C14000FFF740FA09480460094CA7600321112059
:10C15000FFF738FA6068B060002005B0F0BD072036
:10C16000FBE700007820002080E200E000E100E032
:10C1700000150140FEB51F4B5B68002B30D0002836
:10C180002ED0052901D20720FEBD4369002B27D000
:10C19000437C012B26D000270291044600256946E6
:10C1A00016460D70684600F03DF801A804F030FA1C
:10C1B000002819D0012101700F494460496881604D
:10C1C000029907614661C16068460A490079487072
:10C1D0006846007800F044F804F000F82846FEBDF8
:10C1E0000820FEBD0F46D7E768460425007800F01A
:10C1F00037F8F3E7882000200015014010B5084902
:10C20000496800290AD0002808D04169002905D0D2
:10C2100000210174022104F009F810BD082010BDAE
:10C220008820002030B5EFF3108172B6094A5468B7
:10C230000123002C04D00370002900D162B630BD68
:10C240005360054B1D68054C254015601C6000229D
:10C250000270F1E79C20002080E100E0FC06FFBCBA
:10C2600008494A68002A0CD000280AD1EFF3108050
:10C2700072B60A68044B1A6000224A60002800D196
:10C2800062B670479C20002000E100E0F8B5074648
:10C2900008680C460526411C01253602002906D0F7
:10C2A0002946814019488160206802F0AFFE60682D
:10C2B000411C02D0002102F096FE3968A06989195C
:10C2C0004862607D217D3A6808439119C8663868E4
:10C2D00006CC80194261C160207B083C012814D142
:10C2E000A068411C02D0002102F07DFEE068411CE4
:10C2F00005D0854005488560E06802F087FE3A6811
:10C30000E1689219A06891601061F8BD00050050C5
:10C31000F0B50C4693B01F216A461180072600270E
:10C320009180002809D0C17849070DD502A9FFF7EF
:10C330007DFD002809D102AD01E000251780002C09
:10C340000ED0E078002802D0304613B0F0BD01AA2C
:10C350000AA92046FFF76AFD0028F6D10AAA02E0E2
:10C3600068460022878068468088C3B26846008895
:10C37000C1B2284672DFE8E7FFB581B01E460A9FCA
:10C380001346040047D0002B45D0504D01202870A3
:10C390000020E870202219464D48FEF7D1FE00200B
:10C3A0006F61C0432E612881284607211830FEF7AF
:10C3B000E0FE47483C212030FEF7DBFE4448217870
:10C3C00020300170A1788170E178C170617841708E
:10C3D0003F4A656923695563114613632031E36859
:10C3E000A268CB608A603A49E369A269CB638A6339
:10C3F000616A00291AD001463C3102464832416246
:10C400008A60636A1B880B80616A436A89889980A5
:10C410000021436A07E00E2005B0F0BD656AAD68F3
:10C420006D5C5554491C9D888D42F7D8A16A00293E
:10C430001CD0274A943211460C398A608162A36A63
:10C440009B888B80A16A836A098819800021836A8E
:10C4500004E0A56AAD686D5C5554491C9D888D4209
:10C46000F7D82C210A5D1A4940310A73216A002944
:10C4700009D016490A310162226A52884A80216A2B
:10C48000026A098811806168002900D04160104A61
:10C490000E490020B3322031C3001B1A85009B18BF
:10C4A0000C68401C63510828F6DB094A0020EB3277
:10C4B000030185009B188C68401C63510828F7DB3A
:10C4C000034802992030FFF723FFA5E7342000201E
:10C4D0006C52002010B50188134C102915D0112979
:10C4E00019D01B2910D1007A00280DD1E078052140
:10C4F000401CFEF70BFE084600F018F8002803D099
:10C500006169002900D0884710BD817D0129FBD1D8
:10C510008088208110BD0021617180882189884236
:10C52000F8D10120E8E7000034200020F1B53F4CAD
:10C5300088B0207800280AD00898E07006A801F09A
:10C540007DFC06980125002804D065706AE008206B
:10C5500009B0F0BD3548002707211830FEF709FE65
:10C56000334E7078002802D0E078012807D0B078E8
:10C5700000280CD0E078012801D0022807D12169D9
:10C58000002903D025710820884700E0277108980A
:10C59000FFF714FDE0702169002909D0032801D0BC
:10C5A000042805D13078002802D06079002811D005
:10C5B000A77118216846FEF7DCFD68460770077210
:10C5C000E1781A480B001830FFF784F9052E080FA0
:10C5D000191D2000A57107208847EAE7A570019082
:10C5E000684605704782078213E00221A17001901E
:10C5F00068460570B18941823189018209E0684647
:10C6000003F0B6FB02E0684603F0DEFBE0780028AA
:10C6100003D0684673DF00289AD12169002901D030
:10C62000A0788847002093E7A770F6E73420002021
:10C630006C52002000B587B0017868460170012176
:10C6400041702C2181700321C170E8210171042106
:10C65000417505226946024800F06AF907B000BD3D
:10C66000E021002010B50178054803220170652102
:10C670004170012141750146024800F059F910BD91
:10C6800054520020E0210020F8B5002401210903C4
:10C6900000910A4E477832460948009900F0A3FFFE
:10C6A000641CA4B20546BC4202D10548FEF76CFDED
:10C6B000002DF0D1304600F08DFFF8BD3042002053
:10C6C000FC21002010B5427D0146024800F030F9FF
:10C6D00010BD0000E021002000B50AA206CA89B002
:10C6E000019200910648094B094A694604F036F860
:10C6F000684603F0C5F802A803F044F809B000BD8D
:10C7000030420020636D642E74787400E9230000C9
:10C710009008020010B58178407801F041FD10BD0D
:10C7200070B5054601461C220E48FEF709FD0E4C69
:10C73000002626702968002906D00822201DFEF751
:10C74000FFFC201D7ADF02E00748001D7BDF002888
:10C7500007D1401E60806670044A00210448FFF73C
:10C76000B9FC70BD3854002064200020750502001B
:10C77000842C0200F8B5214C0146028800261E4890
:10C78000E589102A13D01E4F112A1FD0122A2BD050
:10C79000502A1AD1881DC988A94216D14189022977
:10C7A00013D10C3000F0EEF800280CD112E08A888A
:10C7B00004464280104808220C301831FEF7C0FCB5
:10C7C0006670002D01D100F07FFBF8BD0021C94348
:10C7D000418046703868FFF711FD0028F5D0A16947
:10C7E0000029F2D08847F8BD034808220C300831F0
:10C7F000FEF7A6FCE7E70000642000203854002084
:10C80000842C02007CB5054608880C46093090420D
:10C8100001D90C207CBD684671DF0028FAD121883F
:10C820000820685420881B21401C80B22080295495
:10C83000208800A9401C80B22080401906220131C6
:10C84000FEF77EFC20886946801D80B22080097832
:10C85000002900D0012129542088401C208000207C
:10C860007CBD000010B50446FFF784FF2146054853
:10C8700000F030F8204602F03BFE2046FFF72AFE8B
:10C8800010BD0000E021002038B50D4604001CD08A
:10C89000002D1AD00020C043A0822868A06100208B
:10C8A000A0750B486946088001208870A21CA0DF93
:10C8B000002809D12946204603F057F9002803D162
:10C8C0002946204603F067FD38BD0E2038BD000024
:10C8D00030AA000010B500281BD0002919D00A8802
:10C8E000102A17D0112A17D0502A12D104468A1DB7
:10C8F000C888238A1231984202D15389022B0FD063
:10C90000A388984205D1A369002B02D05289204602
:10C91000984710BD898801E00021C943818210BD7C
:10C92000084600F02FF8002800D00120A07510BDA7
:10C9300007B584B000280DD0828A114B9A420BD0E3
:10C94000827D002A08D06A46128B142A06D9072055
:10C9500007B000BD0E20FBE70820F9E70022009297
:10C9600001920292039282896B461A80039106A972
:10C97000029101219970808A6946A6DFE8E70000EC
:10C98000FFFF00004178027808021043C007C00F83
:10C990007047002901DA00207047026851180160D1
:10C9A00001207047024909182020085670470000EE
:10C9B0006854002070B504460A4621464078012399
:10C9C000323100F057FD002801D0032070BD112046
:10C9D00040012118487C097C000208430F49884225
:10C9E00001D0022070BD20466930FEF7D4FB6821DB
:10C9F000095D000208430A4D0002A8420AD0204601
:10CA00008530FEF7C8FB803421790002084300021C
:10CA1000A84201D1002070BD012070BD55AA0000C0
:10CA200000464154F0B50B46016815460A788DB0B2
:10CA3000303A092A09D84C783A2C06D1891C016071
:10CA4000002A02D00B200DB0F0BDB64804681C606F
:10CA5000002C10D02078002804D0607800F04CFD25
:10CA6000C1070AD000202070607000F0D1FCC1071F
:10CA700009D00320E7E70C20E5E7002D01D04007AF
:10CA800005D40020DFE7002D03D0400701D50A20A0
:10CA9000D9E721460A3101200E460003FEF785FB47
:10CAA00000210F462046FFF785FF012810D12546BB
:10CAB000FF35F135287900287ED028460930FEF769
:10CAC0006AFB0702287A074339462046FFF772FFC0
:10CAD000032802D000286FD101E00120B3E73046DF
:10CAE000FEF759FB2146213106904A7F0B7F110248
:10CAF0001943884260D126464036707A317A050261
:10CB00000D4306D120465730FEF745FB0502B07DA8
:10CB1000054321461E312846FEF747FB0A90B078B0
:10CB2000E070012801D0022879D145432046203009
:10CB300003950890C57FA570002D70D0691E0D4229
:10CB40006DD12330417800780A0202432272100A24
:10CB500060720B92069841091046FEF7D7FA0490CE
:10CB600000295CD120464130417900790902014316
:10CB700006D120465330FEF70EFB0102B07C014384
:10CB80007078327800021043059048D0039B059AD4
:10CB90000498D21880180490814240D3081A29467C
:10CBA000FEF7B4FA00283AD05F490125884200D345
:10CBB00002255E49884200E031E000D3032521468A
:10CBC0001A31801CFEF7F1FA0790049821463818B4
:10CBD0002A31FEF7EAFA0598214638182231FEF785
:10CBE000E4FA032D1DD00B99002918D003994018A1
:10CBF00021462631FEF7D9FA0798022D22D04100AE
:10CC0000401841080798C007C00F09180698491E28
:10CC100040180A9E0699FEF779FA864214D20D2032
:10CC200011E70B980028FAD120465F30FEF7B3FADF
:10CC3000B17F0002084321462631FEF7B6FA079875
:10CC40008100E3E74100E1E7214612310020C043C3
:10CC50000491FEF7AAFA21460E3100200391FEF757
:10CC6000A4FA032D4DD10020607120466230417836
:10CC70000278080210432146C0191631FEF795FAD2
:10CC80000246214660780123323100F0F3FB002890
:10CC900037D1112040012018417C027C0802244930
:10CCA000104388422DD120463330FEF774FA01023A
:10CCB0000898807C01431F48814222D11E482018D9
:10CCC000FEF769FAE61DFF36FA36B17D0002084329
:10CCD0001A49884215D1184808302018FEF75BFA27
:10CCE000B17F000208430399FEF75FFA1248001D66
:10CCF0002018FEF750FAB17E000208430499FEF7AF
:10CD000054FA08492570091F0888401C0880A07142
:10CD1000000AE07121462E310020FEF746FA00207D
:10CD20002071AEE6C8200020F60F0000F6FF0000DC
:10CD300055AA00005252614117020000727241610F
:10CD400070B5084C050009D010342168002907D0BF
:10CD500008682060496828468847F6E70834F4E701
:10CD600070BD00005454002070B504468D1E1A306A
:10CD7000FEF711FA801EA84201D8002070BD20469F
:10CD80002A30FEF708FAA1786943401870BD000008
:10CD9000F8B52348416800293ED00E6821494C6807
:10CDA00087688078E11B0D022D0AED1C002814D144
:10CDB00001201D4A000450601B4A403A50601B4944
:10CDC000400008601A4908601A49012008602F20B5
:10CDD00001F04CFE124901208870B54200D2354660
:10CDE000E81900020F4B000A403318600D4A5168E1
:10CDF000001B091B0902090A0002000AC91C814222
:10CE000009D9506818602F2001F030FE0120074931
:10CE1000400480390860F8BD02F072FEF8BD0000E1
:10CE200078200020001501404013014080E200E01E
:10CE300000E100E000100140F8B5064610881446F5
:10CE40008446801D0D46984201D90C20F8BD3288D9
:10CE50000720062AFAD31927FF01184BBA4201D935
:10CE60009A42F3D171880629F0D3B94201D9994287
:10CE7000ECD19A4203D0994201D08A42E6D80521EA
:10CE80006046295420881221401C80B220802954F9
:10CE90002088401C80B220804119308803F065FB57
:10CEA0002188401880B220804119708803F05DFB12
:10CEB0002188401820800020F8BD0000FFFF0000FE
:10CEC00010B5FFF7C9F810BDF8B5164801F08CF998
:10CED000144D00260C3D144C002807D06169002930
:10CEE0001CD001206A461070684616E02878002899
:10CEF00005D06169002911D0684606700DE0687898
:10CF000000280DD0A168094800220068FFF732F917
:10CF1000002803D0A169002900D088472E70F8BDF1
:10CF20006168F0E77020002038540020842C020053
:10CF3000FEB506460E30019030461A300F4600907E
:10CF4000002907D0304600F0A7FF044602280DD282
:10CF50000120FEBD0198FEF71EF9040004D00098E0
:10CF6000FEF719F9A04209D8012407E00098FEF75E
:10CF700012F9A04201D92046FEBD3C4625466D1C53
:10CF80000098FEF708F9A84202D80225022C0BD31C
:10CF90002946304600F080FF002807D0411CEBD026
:10CFA0000128E9D0A542EAD10020FEBD144A294655
:10CFB000304602F021FB002808D1002F0BD02A4672
:10CFC0003946304602F018FB002804D0012814D05E
:10CFD00001252846FEBD28460199FEF7E6F83046B1
:10CFE00012300446FEF7D7F8411CF2D02146401E0D
:10CFF000FEF7DBF801207071EBE70025ED43E8E771
:10D00000FFFFFF0FF3B581B002990D6800E06D1CC2
:10D0100029782F29FBD05C29F9D084690B222021A3
:10D02000204601F015FC00218E46082072468446F9
:10D03000A85C521C202851D92F284FD05C284DD0F5
:10D040002E2802D07646E6450BD36346082B54D1F2
:10D050002E2852D1082086460B2084468806010ED1
:10D06000E6E7802801D3032319430346813B1E2BA7
:10D0700002D95F3B1C2B11D8AF5C521C3B46403B96
:10D080003F2B02D3403B7D2B37D263465B1E9E4530
:10D0900033D23346E054701C27541CE023A30646C9
:10D0A00000E05B1C1F78002F02D0B742F9D124E0CA
:10D0B0000346413B192B02D80223194308E00346DB
:10D0C000613B192B04D80123194330462038C0B2E4
:10D0D0007346E0547046401C8646A9E7AB18029A96
:10D0E0002028136001D8042000E000207246002AA6
:10D0F00003D02278E52A02D003E00620FEBD0522F7
:10D1000022706246082A01D18906090E8A07920F09
:10D11000012A01D1102210430907890F012901D1E9
:10D1200008210843E0720020FEBD0000222A2B2CBB
:10D130003A3B3C3D3E3F5B5D7C7F0000F3B50446DF
:10D14000C08881B0401C0604360C4BD0206900908A
:10D15000002847D025682F460A373846FEF71BF8C7
:10D1600041093046FDF7D2FF00297FD10098401CCD
:10D170002061E068009000282ED03846FEF70BF8BA
:10D1800041093046FDF7C2FFA978491E08426DD11A
:10D190002846009900F080FE0546012826D9681C23
:10D1A00043D0206807461A30FDF7F5FFA84255D84E
:10D1B0000298002816D03846E168FFF7B9FE05004E
:10D1C00012D0012D12D0681C2FD00021206801F050
:10D1D00046FB002829D10BE0687A297A000208432F
:10D1E000B04243D80420FEBD0720FEBD0220FEBD94
:10D1F000206807460A30FDF7CEFF02463846323037
:10D20000002101F025FB29462068FFF7ADFD2168CC
:10D210002E31FDF7CAFF002714E001210171002122
:10D22000206801F01CFB002801D00120FEBD206811
:10D230002E300090FDF7AFFF401C0099FDF7B5FFC1
:10D240007F1CFFB220688178B942E6D82E3000906A
:10D25000FDF7A1FFC01B0099FDF7A7FFE560294678
:10D260002068FFF781FD00E000E02061E680206893
:10D2700005460A30FDF78FFF41093046FDF746FFAE
:10D2800048013230401960610020FEBD10B50446EF
:10D29000042018E0206801F0E2FA002818D1626941
:10D2A000117800290DD0E52904D02E2902D0D17A99
:10D2B00009070FD500212046FFF740FF002802D0C4
:10D2C00006E0042004E021690029E3D1002801D010
:10D2D0000021216110BD70B50446002100F02AF83C
:10D2E0000FE02169206801F0BAFA050020D16069D9
:10D2F0000078E52808D0002806D001212046FFF755
:10D300001DFF0500EDD013E02169206801F0A7FAA8
:10D3100005000DD1666920220021304601F098FAFF
:10D320000B223046A16901F08BFA206801210171BE
:10D33000284670BDF8B5C18085680F460646012DA8
:10D340003FD0346820461A30FDF725FFA84238D96F
:10D35000002D08D1207803280ED120462630FDF775
:10D360001AFF050008D020460A30FDF714FFA17807
:10D370004009484384B22AE0F560607A217A0002CD
:10D380000843B8421DD920462630FDF704FF054664
:10D3900020460A30FDF7FFFE41093846FDF7B6FE8C
:10D3A000281825E02946306800F076FD0546401C27
:10D3B00009D0022D05D330681A30FDF7ECFEA842E3
:10D3C00003D80220F8BD0120F8BD381B87B2A74260
:10D3D000E8D2F56029463068FFF7C6FC044630689D
:10D3E0000A30FDF7D8FE41093846FDF78FFE2018B8
:10D3F0003061306804460A30FDF7CDFE41093846F9
:10D40000FDF784FE48013230001970610020F8BD3C
:10D4100010B5002801D0012010BD03A1032002F0A7
:10D4200001F8002010BD00004150503A494E464FCF
:10D430003AD3B2C5CCB3F5CABCBBAFB3C9B9A60D1C
:10D440000A00000000B500200B00FEF743FA0505B6
:10D450000C0906041000002000BD0121090404E0AD
:10D460000121090301E00121C902116000BD04206E
:10D4700000BD0000F8B50E461F461546002409A160
:10D48000032001F0CFFF08E031462846FEF7D8F927
:10D49000012000033618641C6D1CBC42F4DB002024
:10D4A000F8BD00004150503A494E464F3A57323588
:10D4B000585F526561645F536563746F72200D0A33
:10D4C0000000000070B5042001F0D6FD10210825F1
:10D4D000084C0028208803D08843A843208070BDD2
:10D4E00008432080032001F0C7FD00282088F4D1E4
:10D4F0002843F3E72820002000207047F8B51F4696
:10D5000015460E46002408E031462846FEF7B0F9DD
:10D51000012000033618641C6D1CBC42F4DB0020A3
:10D52000F8BD000010B50E4900230A784C78A242DD
:10D5300012D0521CD2B20A70022A00D10B700A78A3
:10D54000074B920018339A5802608868101800023E
:10D55000000A8860012010BD0360002010BD00009B
:10D560007820002070B50D4A0D484B255468ED0019
:10D5700002230188AC4204D2641C994354600180A8
:10D5800070BD490849001943018001200549400345
:10D59000C86005A1032001F045FF70BD18200020E0
:10D5A00028200020000500504150503A494E464F77
:10D5B0003A656E7465725F736C6565705F6D6F64FC
:10D5C0006520BDF8C8EBB5CDB9A6BAC4CBAFC3DFF3
:10D5D000200D0A0010B5044600F016FA002801D10B
:10D5E0000021216010BDF7B5002582B00746044632
:10D5F0004E1E0FE001AB01226946049800F006F9C7
:10D600000198012808D1684600782070641C6D1CC0
:10D610000A2801D0B542EDDB00202070002D02D099
:10D62000384605B0F0BD0020FBE70000002801D01F
:10D630000B207047054B00221868002800D00270AC
:10D64000002900D00A70002019607047C82000200F
:10D65000F7B58EB00746D6060020F60E7208386081
:10D66000520001A90FA8FFF7DDF905000BA80790EC
:10D6700004D101A80F9900F07FFB0546069C002D00
:10D6800002D1002C00D10625F006400F55D0002D08
:10D690000BD0042D03D101A8FFF71DFE054608207D
:10D6A0000643069C002D0AD07BE0E07A1121084257
:10D6B00001D0072575E0700701D5082571E0300716
:10D6C0004AD500F08CFCA073010AE173010C2174AF
:10D6D000000E60740020E07220776077A077E0771A
:10D6E000617D227D09021143E27EA37E12020904BC
:10D6F0001A4311430891A076E07620756075019871
:10D70000012101710899002924D001982E30FDF7DC
:10D7100042FD00900899019802F09AF9050040D165
:10D7200008980199401E0E31FDF73FFD00990198C0
:10D7300001F095F805000BD033E0002D31D1E07AEF
:10D74000C10601D504252CE0B10701D5C007B0D131
:10D75000300701D52020064301982E30FDF71BFD30
:10D760003C62F861BE71607D217D00020843E17E6C
:10D77000A27E0902000411430843386120461D308F
:10D78000FDF709FD217F00020843F8600020B86022
:10D79000B861019838600199C87989790002084315
:10D7A000B880284611B0F0BD13B584B004460146D8
:10D7B000002205A8FFF736F9002825D16846A061A8
:10D7C0002046059900F0D8FA00281AD1606900288F
:10D7D0000DD0C17AC90616D5417D027D09021143DB
:10D7E000C27E0904837E100218430143A1602168B0
:10D7F000C879897900020843A08000212046FFF7FC
:10D8000099FD042800D1052006B010BDFFB587B0F2
:10D81000044601910A98002101601546A1882068FC
:10D8200002F07BFF002803D1A079010602D5022077
:10D830000BB0F0BDC0070AD0A168E0688027401A8D
:10D84000214624310291854200D90546AEE00720E9
:10D85000EEE7206806460A30FDF79DFC0146A06809
:10D860000590FDF753FC00297ED1B178491E084090
:10D870000006000E03900BD10598002825D03046F5
:10D88000616900F009FB022821D3411C67D0606167
:10D8900061692068FFF768FA002818D003994018DA
:10D8A0000090266830460A30FDF775FC0146284690
:10D8B000FDF72CFC0490002836D0049903984118F9
:10D8C000B078814207D8049808E02069DBE7A079A6
:10D8D0003843A071ABE70399401A0490C3B2707843
:10D8E000009A0199FFF7C6FD002838D1A0794006BB
:10D8F00012D5A16900980E1A049886420CD22068AD
:10D900000A30FDF748FC0146019A71438B18024624
:10D910001846029900F094FF20680A30FDF73BFC9E
:10D9200004994843064635E0A269009882421CD01B
:10D93000A07940060AD5707801230299FFF7DEFD31
:10D9400000280CD1A079BF210840A07120680123D4
:10D950004078009A0299FFF78DFD002805D0A07944
:10D960003843A071012063E701E00098A0612068BE
:10D970000A30FDF710FC06463146A068FDF7C6FBED
:10D98000761AAE4200D92E46091932462431019842
:10D9900000F056FF019880190190A0688019A060DE
:10D9A0000A98006881190A98AD1B0160002D00D00B
:10D9B0004FE700203CE7FEB50E460446818800682C
:10D9C00002F0ABFE002817D1002E16D06846A061E9
:10D9D0002046FFF75BFC0025042813D000280BD15C
:10D9E0003146204600F0FDFA00212046FFF7A6FB55
:10D9F000042801D100202561FEBD00212046FFF74B
:10DA000099FCFEBD2561EBE770B50446818800688E
:10DA100002F083FE00280FD1A1798A060CD54806B2
:10DA20000FD520682146407801232431A269FFF7F1
:10DA300065FD002801D0012070BDA079BF210840FC
:10DA4000A071E169206800F00AFF0028F4D1256A7E
:10DA50002021E87A0843E872207B2877A089000A11
:10DA60006877E068000CA877E068000EE877207C13
:10DA7000A876208A000AE8762069000C28752069BB
:10DA8000000E687500F0ABFAA875010AE975010C83
:10DA90002976000E6876A079DF210840A071216800
:10DAA00001200871206802F09EFA70BDFFB587B0B2
:10DAB000044600910A98002101601646A18820685A
:10DAC00002F02BFE002803D1A079010602D5022026
:10DAD0000BB0F0BD800701D40720F9E7E1682046CC
:10DAE00024308A19802705908A427DD3C1E02568B9
:10DAF00028460A30FDF74FFB0146A0680390FDF76A
:10DB000005FB002971D1A978491E08400006000EC6
:10DB100001900DD10398002817D028466169FFF7BE
:10DB200007FA002860D0012839D0411C77D0606105
:10DB3000A079400616D5206801234078A26905998E
:10DB4000FFF7DCFC00286AD108E020690028EAD150
:10DB500000212846FFF7ECF92061E2E7A079BF2118
:10DB60000840A07161692068FFF7FEF8002816D010
:10DB7000019940180290206805460A30FDF70BFB1A
:10DB800001463046FDF7C2FA0390002837D00399CA
:10DB900001984118A878814205D8039806E0A07939
:10DBA0003843A07193E70199401A0390C3B2687893
:10DBB000029A0099FFF7A2FC002830D1A1690298CF
:10DBC0000D1A0398854212D220680A30FDF7E3FA55
:10DBD0000146009A694389180246059800F030FE14
:10DBE000A079BF21084001E046E01FE0A071206855
:10DBF0000A30FDF7D0FA0399484305462DE0A169A4
:10DC00000298814210D0E168A06888420CD26878FE
:10DC10000123029A0599FFF72DFC002804D0A07972
:10DC20003843A071012053E70298A06120680A30B0
:10DC3000FDF7B1FA01460D46A068FDF767FA6D1AC7
:10DC4000B54200D9354608192A462430009900F01B
:10DC5000F7FDA07940210843A07100984019009079
:10DC6000A0684019A0600A980A9900684019761BBC
:10DC70000860002E00D03AE7A168E068814200D930
:10DC8000E160A17920200143A171002020E700007C
:10DC90007CB515460C46032269460A71020C4A718E
:10DCA000020A8A71C871102001F0D6F900200346DB
:10DCB0000090042201A90A4800F0EEFF012609E0C5
:10DCC0002B4600226D1C11460548009600F0E4FF2B
:10DCD000641EA4B2002CF3D1102001F0D5F97CBD54
:10DCE00078080200FEB50F4604460221684601711D
:10DCF000210C4171210A81711546C471FDF76CFB3D
:10DD0000FDF78EFB102001F0A7F9002621E029463F
:10DD10006D1C002301221748009600F0BDFF7F1EF6
:10DD20003F043F0C1DD0641C2006000EEFD11020D4
:10DD300001F0AAF9FDF750FBFDF772FB102001F08E
:10DD40008BF9022168460171210C4171210A817110
:10DD5000C4710023042201A90648009600F09CFF2C
:10DD6000D5E7102001F090F9FDF736FBC82000F050
:10DD700063FEFEBD7808020073B501990446087879
:10DD80002F2801D05C2801D1491C01910025A560F4
:10DD900001980078202805D200212046FFF7CAFA12
:10DDA00065617CBD01A92046FFF72CF90028F8D158
:10DDB00000212046FFF7BEFA002822D12169206801
:10DDC00000F04DFD00281CD161690A78002A05D0B9
:10DDD000CA7A12070FD40A23A26903E0042010E0D4
:10DDE0005B1E06D30D781678491C521CAD1BF7D06C
:10DDF00001E0002D05D000212046FFF79FF9002803
:10DE0000DCD0A1690028C97A05D00428C9D1490706
:10DE1000C7D405207CBD4907FCD46069C17AC90616
:10DE2000F7D5417D027D09021143C27E0904837E3C
:10DE3000100218430143A160B4E70000002804D099
:10DE40000349496E016000207047032070470000BD
:10DE50002055002070B5042000F0B8FD0B4C208048
:10DE6000082000F0B3FD6080094800690425C00463
:10DE7000C00F084C002804D000F084FC2088284300
:10DE800001E02088A843208070BD000018200020F9
:10DE90000005005028200020F0B585B00D4604464E
:10DEA000022905D320461A30FDF775F9A84202D899
:10DEB000012005B0F0BD20462178223004901838AA
:10DEC0000290012904D0022943D0032971D15FE0D7
:10DED000680846190498FDF75EF907460298FDF7B1
:10DEE0005AF901463046FDF711F93918204600F07D
:10DEF000B6FC00285DD10298FDF74DF9014601906E
:10DF00003046FDF703F908192030877C761C00960F
:10DF10000498FDF740F9064601990098FDF7F6F8D8
:10DF20003118204600F09BFC002842D10298FDF7F2
:10DF300032F901460098FDF7E9F808192030807C95
:10DF400000023843E90701D00009B2E70005000DDF
:10DF5000AFE70498FDF71FF906460298FDF71BF995
:10DF600041082846FDF7D2F83118204600F077FC2A
:10DF700000281ED10298FDF70EF901466800FDF752
:10DF8000C5F808193230417802780802104390E74A
:10DF90000498FDF700F906460298FDF7FCF88108A1
:10DFA0002846FDF7B3F83118204600F058FC002849
:10DFB00002D00020C0437CE70298FDF7ECF8014650
:10DFC000A800FDF7A3F80819044632343330FDF7F2
:10DFD000E2F82178000208430001000969E7002007
:10DFE000704770B50E460C460169093400292FD0E0
:10DFF00045690021685C202807D0052800D1E5206C
:10E000002070491C641C0829F4D3287A20280BD0DE
:10E010002E2020700820641C295C202904D0217047
:10E02000401C641C0B28F7D3E87A307228461D3058
:10E03000FDF7B1F8297F000208433060687E297E31
:10E0400000020843B080E87DA97D00020843F0800B
:10E050000020207070BD000010B50321084600F0BC
:10E06000B0FF0321042000F0ACFF0AA1032001F05F
:10E07000D9F9FDF737F90F490020FFF7D7FA002843
:10E0800003D10DA1032001F0CDF9134801F0F8FBF5
:10E0900010BD00004150503A494E464F3ABFAACAFF
:10E0A000BCB3F5CABCBBAFCEC4BCFECFB5CDB30DBF
:10E0B0000A000000FC3100204150503A494E464FC2
:10E0C0003ACEC4BCFECFB5CDB3B3F5CABCBBAFB37B
:10E0D000C9B9A60D0A0000000020002010B5FFF706
:10E0E000BBFF00F003F8FDF765FE10BD1CB5032172
:10E0F000142000F06FFF0321152000F06BFF0021BA
:10E1000000910B46012201910D20114600F014FFF1
:10E1100001200249400388601CBD0000000500503A
:10E12000F8B51E4C2078002836D0E068002600287C
:10E130000CD00025607800282ED1684652DF0528D3
:10E1400006D0002806D0FDF787FF0BE00125F1E798
:10E15000012607E0009800F0DFFC2169002901D0CA
:10E1600000988847002D13D16078002814D160886A
:10E1700069460880A06861DF052804D0002804D023
:10E18000FDF76AFF04E0012502E0E168A068884726
:10E19000002ECFD0002DE5D0F8BD0000B02000202B
:10E1A00070B50F4B0D469E691C695A69D96886B0D7
:10E1B000042803D8039601940292009101210903D7
:10E1C0000848FCF7D6FFFF2D05D02946684601F028
:10E1D00013FC06B070BD684601F052FBF9E7000081
:10E1E000F41F0020FC21002041880548028891424C
:10E1F00004D34088814201D8012070470020704735
:10E20000682000201048018CC9B2012917D1818CE7
:10E21000090714D1018D09060A0F03D1828D120658
:10E22000120F0ED0090F012903D1828D1206120F91
:10E2300007D0032903D1808D0006000F01D00020F4
:10E240007047012070470000C00F00F070B5294CE6
:10E2500000252079401C2071E570FDF70FFA6070F1
:10E26000002828D0A178002901D0257121E00122C1
:10E270002149012802D0022819D107E0E27008885C
:10E280001043088000F07EFA1CA10DE00223E37029
:10E290008878032807D0022802D0012802D002E0A3
:10E2A0008A7000E08B701DA1032001F0BBF825717E
:10E2B0001EE0A07070BDA278002AFBD00D48FD239F
:10E2C00001784908490001702571012A02D0022A0B
:10E2D0000ED105E00522E2701940017019A104E099
:10E2E0000622E270194001701EA1032001F09AF885
:10E2F0006078DEE710200020282000204150503AAE
:10E30000494E464F3A425554544F4E5F57414B4544
:10E310005550202020B0B4BCFC0D0A004150503AAA
:10E32000494E464F3A425554544F4E5F4348414E32
:10E3300047455F4D4F4445202020B0B4BCFC0D0A3A
:10E34000000000004150503A494E464F3A42555461
:10E35000544F4E5F57414B455550202020CACDB7F2
:10E36000C50D0A004150503A494E464F3A42555465
:10E37000544F4E5F4348414E47455F4D4F44452003
:10E380002020CACDB7C50D0A0000000010B51F4CF3
:10E3900020212088012388431D4920800A785A4083
:10E3A0000A70C10609D5000703D5052000F074FEE8
:10E3B00006E0052000F080FE02E0052000F054FE9B
:10E3C000A078012804D0022807D0032812D10BE03E
:10E3D000082000F061FE042003E0042000F05CFE51
:10E3E000082000F041FE05E0082000F03DFE04207A
:10E3F00000F062FE2078C00703D00A2000F04CFE37
:10E4000010BD0A2000F030FE10BD000028200020C2
:10E410002C20002010B5074CA068810704D1820889
:10E4200005A1032001F004F8FFF7B0FFA068401C2D
:10E43000A06010BDE81F00204150503A494E464FA1
:10E440003A6C65645F74696D65725F68616E646C77
:10E450006572206C65645F6E756D3A256420730D7E
:10E460000A000000F0B5284C2146103948688B6836
:10E47000227886469C46CF78667836E01823534348
:10E480006168521CC918A378D2B2934200D100220D
:10E490000B78022B02D0032B27D123E003464D68D3
:10E4A000194603E0A94204D00B46C96900291CD0D3
:10E4B000F8E7002919D08B4208D1C069002805D19E
:10E4C000124F0125BD600025AC4601270D68C969C2
:10E4D000D961002909D00B685B190B6005E0017454
:10E4E000C06900E000210028F9D19642C6D1064952
:10E4F000624610398A604860CF70704501D00120B3
:10E50000F0BD0020F0BD0000882000200010014078
:10E51000F8B52C4E044670680025009041E0002CB0
:10E5200002D02046E46920E0264818231030017804
:10E5300042684B43491CC9B2D21801708378994292
:10E5400000D105701178506801292CD1017C002977
:10E5500029D191684160D16881601169C1605169B8
:10E560008161F178002900D045604368B268164F98
:10E57000991A0902090AB94202D28268891806E08A
:10E58000D11A09028268090A8A4202D9511A016025
:10E5900000E005604560012185600174C56101F0FE
:10E5A00025FE002CBBD1074810300178407881420D
:10E5B000BAD171680098814201D00120F8BD0020D5
:10E5C000F8BD000078200020FFFF7F00A8B00020E9
:10E5D00000F03CFF00235E4A05211846FDF790FD40
:10E5E000002801D0FDF738FD5A4A01215A48FDF7AD
:10E5F00071FD594CFF21002249312068FDF7BAFD19
:10E60000564A0121201DFDF765FD01210022490325
:10E610006068FDF7AFFDFFF761FDA0684C4905900C
:10E62000002348225C3905A801F06CFC002801D0C9
:10E63000FDF712FD6A460121002001F04BFC002885
:10E6400001D0FDF709FD684601F0F2FB002801D07A
:10E65000FDF702FD424801F0E1FB002801D0FDF783
:10E66000FBFC11206946087208223EA102A87CDF4B
:10E67000002801D0FDF7F0FC00240094102168462A
:10E68000019401803C214180FF2184809131C1802F
:10E690007ADF002801D0FDF7DFFC354800902C48D8
:10E6A00069467830FEF7F0F8002801D0FDF7D4FC79
:10E6B0003C2101A8FCF75DFD0221684601718471CF
:10E6C0000521C1713C2110A8FCF753FD012510A8BC
:10E6D00005822848159020211FA8FCF74AFD18A89C
:10E6E000C57740202390B4202490234B1FAA10A963
:10E6F000009401A8FDF740FE002801D0FDF7ACFC16
:10E700001C216846FCF735FD0520C00301900F2051
:10E71000000402900094032168460173C4810474CC
:10E7200016480590164806906846FDF7F9FF002840
:10E7300001D0FDF791FC0320FDF7F8FE48DF00282B
:10E7400001D0FDF789FCFDF733F8FDF72DF8F5E76B
:10E7500068210020A50002006808020015E40100FD
:10E7600065C801004E657753746172740000000043
:10E7700089F40100EC1F0020EDF40100D9F501003F
:10E78000C1CE010010B508490020486007480122A9
:10E7900001881143018006495003886005A10320C8
:10E7A00000F040FE10BD00001820002028200020AE
:10E7B000000500504150503A494E464F3A6D61694C
:10E7C0006E626F6172645F77616B655F7570202048
:10E7D000BBBDD0D10D0A000070B5144682880E462C
:10E7E00005462088111D4118921C994201D8FE2A25
:10E7F00001D90C2070BD521C32542088FF21401CCE
:10E8000080B2208031542088401C80B22080811941
:10E81000288801F0AAFE2188401880B22080AA88AA
:10E82000002A09D0A968002908D08019FCF788FCC3
:10E830002088A98840182080002070BD072070BD66
:10E8400003E00B780370401C491C521EF9D270473C
:10E85000C9B201E00170401C521EFBD27047FEB5E8
:10E8600004462E300F460290FCF795FC0546B84250
:10E870003BD02046217932300090002925D06078A5
:10E8800001232A460099FEF739FE002827D120717E
:10E8900020462230FCF77FFC064620461E300190C1
:10E8A000FCF779FC3018A8420FD9E6780BE0019804
:10E8B000FCF771FC4519607801232A460099FEF7A0
:10E8C0001DFE761EF6B2012EF1D8002F0DD0607815
:10E8D00001233A460099FEF7CDFD002801D0012022
:10E8E000FEBD38460299FCF760FC0020FEBDF8B57D
:10E8F0000F46017814460546012902D168780028A0
:10E9000006D02088821C9A422DD8012902D006E028
:10E910000720F8BD69784118891C994223D8181A34
:10E92000801E86B2684606802188B81C0818694691
:10E930007DDF0028EDD12878022805D169460988B5
:10E94000B14201D809210AE00821012805D16878DF
:10E95000B04202D86A46108001E0684606806846E8
:10E960000088FE2801D90C20F8BD2288401CB8542C
:10E970002088401C80B22080395420886946401C81
:10E9800020800988401820800020F8BD10B501784B
:10E990008A074178920F4907C90E406811438207E0
:10E9A000540E0C438103890F03D00321090408404E
:10E9B0000443002000F020F803494868FF221202B7
:10E9C00010402043486010BD0075004010B500F0B5
:10E9D00013F8064A01211160054800230468002C41
:10E9E000FCD0036003488068516010BD0070004097
:10E9F000007100400075004010B5064902024B68E6
:10EA0000FF242402A3431A434A60002800D00120B7
:10EA1000086010BD00750040C20843075B0F01206D
:10EA2000895C9840084070470121890740180068B8
:10EA3000002800D0012070477D21C90048430FD035
:10EA40000849094A096800BF00BF00BF00BF00BFF6
:10EA500000BF00BF00BF914200D000BF0138F2D11B
:10EA600070470000302000200024F40000280FD060
:10EA70000849094A096800BF00BF00BF00BF00BFC6
:10EA800000BF00BF00BF914200D000BF0138F2D1EB
:10EA900070470000302000200024F40070B50E4CB8
:10EAA00000252078002801D0852513E00021A160F1
:10EAB00061602161E160094800680126304002D1AF
:10EAC000032100F02FF801F049FA002801D1044891
:10EAD00086612670284670BD5454002000E100E095
:10EAE0000005004038B50020694608706846FDF70B
:10EAF00099FB084C2078002801D1FFF7CFFFE06890
:10EB0000401CE0600120A07068460078FDF7A8FB7B
:10EB100038BD00005454002010B5002801D1FEF784
:10EB20000FF910BD8207D30EFF229A408907090E04
:10EB300010B5994000280BDA03071B0F083B9C080F
:10EB40000C4BA400E318DC6994430C43DC6107E040
:10EB50008408094BA400E418236893430B43236003
:10EB6000C106C90E012088400449086004490860B4
:10EB700010BD000000ED00E000E400E080E200E0F5
:10EB800000E100E0FEB5074640790C4641013F48F0
:10EB90000E18307E002801D00820FEBD3260207B98
:10EBA0000125012805D82178284688403849C860C1
:10EBB00002E0207800F078FA2178364A01208900B6
:10EBC000891808606578FF2D06D03149A840C860D3
:10EBD000284600F025FA01E00025ED43A078FF2843
:10EBE00008D0002300931A4619460193029000F0C2
:10EBF000CBF902E00020C0430290E078FF2804D067
:10EC000000F052FAE07800F00BFA7879E1784201EE
:10EC10001E481018817639680520000223780818EC
:10EC2000029A8360C5600261A2684262627B237BB4
:10EC3000002A00D00122012B04D0022B04D0032B88
:10EC400006D103E0022302E0042300E006231A4376
:10EC500042657A79637955010C4AAA18D3763268ED
:10EC6000002A04D0032304221B02C9184A6001258C
:10EC700005603068002804D0042021793856FFF759
:10EC800051FF002070763576FEBD0000CC54002088
:10EC900000050050000700501FB50091069C02932C
:10ECA00069460A710C73002200F002F804B010BD2E
:10ECB000F8B50D464179184B4901C9180023009356
:10ECC0004B7E002B01D01120F8BD0B68002B04D027
:10ECD00014231A4201D101234B76D8CD0831D8C173
:10ECE0004B79FD245B085B0023404B718C7818390D
:10ECF000103DFF2C03D00123A340084CE360002A01
:10ED000004D00020487606200090F8BD00682A460E
:10ED100001F030F90098F8BDCC54002000050050F7
:10ED2000F8B506460F4600791C2148431A49154696
:10ED30004418E07E002801D00820F8BD394630464E
:10ED4000FDF7A4FA65603869206028460025002890
:10ED500013D0FF223068397F1D328550FF22306882
:10ED600045328550032330681B020C4AC0184260AC
:10ED70003068000B40B2FFF7D5FE05223068042151
:10ED8000120280180160E5752576A5750121E176EE
:10ED90002846A576F8BD0000B0540020800002008F
:10EDA00070B505460C4600791C21484308494318B4
:10EDB000284600F055F8002801D0112070BD9A7542
:10EDC00000209C609882284600F004F870BD000086
:10EDD000B0540020F8B5044600791C2148431F496F
:10EDE00000264518FF2720681D37C65120680121DD
:10EDF00081602946206801F0BFFA6968002913D0B4
:10EE000027E0FF270137FF211D31206800F02FFB8D
:10EE1000002802D1A88AB842F5D1A88AB84203D006
:10EE20002946206801F0A8FAA88AA97D8842E8D37B
:10EE3000A98AC81FF9380ED0FF271D373946206828
:10EE400000F015FB0028F9D020680121C1600020E6
:10EE5000A8753046F8BD0F26F9E70000B054002031
:10EE600000791C21484303494018807D002800D0C8
:10EE700001207047B0540020F8B501791C2251439D
:10EE8000204A00238D1805220168120289180B60A0
:10EE9000696800290CD00324016824021A4B09195F
:10EEA0008B600168C903CB0E01219940174B196093
:10EEB0000522016812028A18D36856699768146996
:10EEC0000021C9435161D1600068052212028018F7
:10EED00081600161581C02D0184600F069F8701C6E
:10EEE00002D0304600F064F8601C02D0204600F0EA
:10EEF0005FF8781C02D0384600F05AF80020E87617
:10EF00006860F8BDB05400208402020080E100E097
:10EF100070B552000A439900049D0A432902059ED8
:10EF20000A43310405240A432407800007210019FD
:10EF300009024018026070BD70B552000A43990082
:10EF4000049D0A432902059E0A43310405240A430D
:10EF5000240780000721001909024018026070BDD3
:10EF600070B552000A439900049D0A432902059E88
:10EF70000A43310405240A432407800007210019AD
:10EF800009024018026070BD70B552000A43990032
:10EF9000049D0A432902059E0A43310405240A43BD
:10EFA000240780000721001909024018026070BD83
:10EFB0001CB5002100910B4601220191FFF7D0FF03
:10EFC0001CBD1CB500220B46009211460192FFF7B2
:10EFD0009FFF1CBD1CB500220B46009211460192FA
:10EFE000FFF7AAFF1CBD1CB500220B46009211467C
:10EFF0000192FFF7B5FF1CBD1CB5002100910B4627
:10F00000012201911146FFF783FF1CBD1CB50021B1
:10F0100000910B46012201911146FFF7A1FF1CBD93
:10F020001CB5002100910B46012201911146FFF70A
:10F03000ABFF1CBD052212078000821807200002CA
:10F040001018026803231B049A4302600268090433
:10F050000A43026070470000012181400148C160FD
:10F060007047000000050050012181400148C16047
:10F07000704700000005005002490969C140C807F7
:10F08000C00F704700050050012181400148816098
:10F090007047000000050050012181400148816057
:10F0A0007047000000050050012181400148816047
:10F0B0007047000000050050044A53680121814058
:10F0C0000846984390601940D16070470005005091
:10F0D00038B5084B05241B68009324026B46411881
:10F0E00005E085005D592D192D69401C20C2814223
:10F0F000F7D838BD882C0200024940180021016071
:10F100007047000000600040034940180068012873
:10F1100000D00020704700000060004000487047A9
:10F120009DF1010030B5194C0546207889B00028C2
:10F1300005D06078854202D1002009B030BD202280
:10F1400013496846FBF7FCFF002069460875092053
:10F1500000900B200190082003900A2002900D4897
:10F1600006900A48001DFFF787FE002D01D00022FF
:10F1700000E0094A05486946001DFFF7D1FD002857
:10F18000DBD1012020706570D6E70000A4200020AC
:10F190008C2C020000E0D70131040200F0B5C5B0AC
:10F1A0000C46002100914D984B991E4608181746B1
:10F1B0000390002C01D00A2000E00020019000F014
:10F1C00071FD00287ED104AD002E17D100986A464B
:10F1D0002918204601F08EF8002875D03846FBF734
:10F1E000D3FFC22800D9C22004460098224628181E
:10F1F0003946FBF7A5FF0098001900900099019887
:10F200000A1804A8441831328518002003E0202190
:10F210002170401C641C01998842F8D30027039890
:10F22000864207D3202020706070A0702870E41CF4
:10F230006D1C2CE04B98864202D24A98805D02E019
:10F24000311A4C98405C22468446012102908B0082
:10F250006046D8400007000F092801D9373000E088
:10F26000303001235B1AD054491EF0D22020907018
:10F27000D41CFBF761FF01680298085C8006C00E91
:10F2800001D0029800E02E2028706D1C761C7F1C97
:10F29000102FC4D30D2028700A2068702020207001
:10F2A000009901980918433104A8009100F002FD6B
:10F2B000002809D000F0F6FC002805D10090039842
:10F2C000864200E000E099D3304645B0F0BDFFB57E
:10F2D000C7B00025509F1C46059500F0E3FC0028B0
:10F2E00075D1059806AE311805AA489801F002F8C4
:10F2F000002836D03846FF2701370300FCF7EAFA2A
:10F300000705131B333F4B5725004998FBF73CFF7C
:10F31000059905464018FF2817D870182A464999BC
:10F32000FBF70EFF11E005982368391A3018499A47
:10F33000FCF7BAFA08E06068009005982368391A6B
:10F340003018499AFCF7B0FA0546294605A8FDF79A
:10F3500020FB059900283AD0B94238D806A800F019
:10F36000A9FC4BB0F0BDA1686068009001910598C0
:10F370002368391A3018499AFCF796FAE4E7201DF9
:10F3800007C86B4607C305982368391A3018499A8D
:10F39000FCF78AFAD8E7201D0FC86D460FC50598FF
:10F3A0002368391A3018499AFCF77EFACCE72046D0
:10F3B00008300FC801AD0FC560680090059823683C
:10F3C000391A3018499AFCF76FFABDE7FFE70020B9
:10F3D000C7E7000000487047CFF2010038B500933E
:10F3E000034B0D465C69134600212A46A04738BDF1
:10F3F00088560020FFB51C46002385B017461D46E1
:10F400000748019402950097039586690021069AA2
:10F410000598B0470346A042F2D309B0F0BD000002
:10F420008856002010B500231A46FFF7D7FF10BDFD
:10F4300008B5009201236A46FFF7D0FF08BD00001F
:10F44000014A9161506170478856002070B50120D3
:10F45000FFF768FE040008D1FFF7BCFF0546FFF781
:10F460005DFE01462846FFF7EBFF204670BD405881
:10F47000002800D001207047032212028018406843
:10F48000084000D00120704710B50846D1B200F006
:10F4900001F810BD10B5044617211348FBF769FEAB
:10F4A000207810380300FCF715FA0B0A070A130A34
:10F4B0000A0B0F1B0A170A002046FDF7BBF810BD08
:10F4C0002046FDF727F910BD2046FDF7DDF810BDF9
:10F4D0002046FDF701F910BD2046FDF7F3F810BDF9
:10F4E0002046FDF7BFF810BD5452002070470000C1
:10F4F00030B504462F4900884D8889B01B2821D09B
:10F500000DDC022835D0102815D0112815D013286D
:10F5100016D100231A46852128467FDF22E03A28AB
:10F5200023D0512829D0522817D0552808D1A08897
:10F53000132176DF16E0A08801E00020C043488058
:10F5400009B030BD1CA10320FFF76CFF0320FCF7BE
:10F55000EDFFF5E7FCF780FDF2E700231A461946B8
:10F560002846A9DF0028F5D1EAE7A088132176DF35
:10F57000F8E7A088002167DFF4E71022A11D04A8A6
:10F58000FBF7DEFD6846017C0029D9D0007E042807
:10F5900003D0062801D00528D2D1022908D00120A5
:10F5A00069460870FF2083308880A088A8DFD9E7EB
:10F5B0000220F5E7E81F00204150503A494E464FDF
:10F5C0003A424C455F4741505F4556545F54494D60
:10F5D000454F5554200D0A0010B50078002807D17A
:10F5E00004483B21408876DF002801D0FCF734FD39
:10F5F00010BD0000E81F0020F0B585B017460D468D
:10F600000446022905D320461A30FBF7C4FDA84260
:10F6100001D802260EE020462178223003901838C7
:10F620000290012909D002295AD0032977D0022655
:10F6300001202071304605B0F0BD680840190090E7
:10F640000398FBF7A8FD06460298FBF7A4FD0146C8
:10F650000098FBF75BFD31182046FFF700F9060024
:10F66000E6D10298FBF797FD01460098FBF74EFDA7
:10F6700008193230E90705D001780907090F3A0166
:10F68000114300E0394601700098401C00900120B1
:10F6900020710398FBF77FFD06460298FBF77BFD80
:10F6A00001460098FBF732FD31182046FFF7D7F8E6
:10F6B0000600BDD10298FBF76EFD01460098FBF7EE
:10F6C00025FD08193230E90702D03905090E05E099
:10F6D00001783A0509090901120F11430170A7E7E2
:10F6E0000398FBF758FD06460298FBF754FD4108C6
:10F6F0002846FBF70BFD31182046FFF7B0F806004F
:10F7000096D10298FBF747FD01466800FBF7FEFC27
:10F71000081932300770390A417089E7FFE703980A
:10F72000FBF739FD06460298FBF735FD81082846B0
:10F73000FBF7ECFC31182046FFF791F80600CED11C
:10F740000298FBF728FD0146A800FBF7DFFC08192B
:10F75000054632353330FBF71EFD0002010F090765
:10F7600039432970080A6870080CA870080EE87000
:10F770005EE7012252075110886B496B414388189C
:10F780007047000070B586B00646002418A1FEF749
:10F790000BF805000AD017A10320FFF743FE2A4605
:10F7A0001BA10320FFF744FE06B070BD1EA103207D
:10F7B000FFF738FE02AD013509E06846007AC00661
:10F7C00005D42A4622A11320641CFFF731FE6946A6
:10F7D0003046FEF7F0F8002803D16846407A00284A
:10F7E000EBD1002CE0D11DA10320FFF71BFEDBE7CE
:10F7F0002F0000004150503A494E464F3AB4F2BFF4
:10F80000AAB8F9C4BFC2BCCAA7B0DC210D0A000067
:10F810004150503A494E464F3AB4EDCEF3B4FAC295
:10F82000EB3A2025750D0A004150503A494E464F9B
:10F830003A2D2D2D2D2D2D2D2D2D2D2DCEC4BCFE53
:10F84000C1D0B1ED2D2D2D2D2D2D2D0D0A00000037
:10F8500066696C653A2025730D0A00004150503AE4
:10F86000494E464F3ACEDECEC4BCFE2CC7EBB7B5F0
:10F87000BBD8CFC8B4B4BDA8CEC4BCFE210D0A000D
:10F88000F8B50746012636031C4D1DA10320FFF7DE
:10F89000C9FD0A233A4621A10320FFF7ABFD224C04
:10F8A0000020A060032239462846FDF7D1FE020061
:10F8B00015D01EA10320FFF7BBFD6B46324623493E
:10F8C0002846FDF7A3FF02000BD021A10320FFF77C
:10F8D000AFFD28A10320A268FFF7AAFDF8BD30A163
:10F8E000E8E737A11320009AFFF7A2FD009800284F
:10F8F000E3D12846FDF76EFEEBE700003042002022
:10F900004150503A494E464F3AA3A1A3A1B4F2BF89
:10F91000AACEC4BCFE2020203A0D0A004150503A25
:10F92000494E464F3A0D0A00F41F00204150503A0C
:10F93000494E464F3AA3A120B4F2BFAACEC4BCFEA2
:10F94000CAA7B0DCA3BA282564290A00FC2100203C
:10F950004150503A494E464F3AA3A1A3A1CEC4BC50
:10F96000FEB6C1C8A1CAA7B0DCA3BA282564290A7B
:10F97000000000004150503A494E464F3AB6C1C8C7
:10F98000A1CEC4BCFED3C3CAB120207469636B5F2F
:10F99000636F756E743A202564306D730D0A000034
:10F9A0004150503A494E464F3AA3A1A3A1B4F2BFE9
:10F9B000AACEC4BCFEB3C9B9A6282564290A000092
:10F9C0000D0AA1B7D2D1BEADB6C1C8A1CAFDBEDD78
:10F9D000B3A4B6C820666E756D3A25642020B6C102
:10F9E000C8A1B5C3B5C4CEC4BCFECAFDBEDDCEAA97
:10F9F000A3BA200D0A200000F8B50F460124124ECC
:10FA000024030146032230460094FDF721FE2146DF
:10FA10000E48FBF7AEFB002432460C480099FDF778
:10FA2000E2FD641CE4B20546BC4206D10748FBF780
:10FA3000ABFB0146054800F097FD002DECD13046A8
:10FA4000FDF7C8FDF8BD000030420020FC21002079
:10FA5000F0B589B00D4606460291009102291DD3EA
:10FA600030461A300890FBF796FBA84216D90027BB
:10FA70003046123001903BE029463046FEF70CFA42
:10FA800004003AD0012C09D0601C09D0002229467C
:10FA90003046FFF7B1FD07002FD103E002272CE02D
:10FAA00001272AE00198FBF776FB411C05D0401C9A
:10FAB0000199FBF77AFB012070710098401CA0426D
:10FAC00001D1009413E030460299FDF74DF90490FE
:10FAD00030460099FDF748F9B178401E401805906E
:10FAE000707804AA0421FDF7ADFC00940294254629
:10FAF0000898FBF750FBA842BED8384609B0F0BDC5
:10FB000070B501240B49600408600B4940108860FF
:10FB1000094940398860094D6C602F20FEF7A6FF27
:10FB2000AC60074D00242F20AC60FEF79FFFAC7047
:10FB300070BD000080E100E0401301400010014072
:10FB40007820002030B5FF220523CD7D0024093226
:10FB50001B02C318002D8450986905D04B7ECA68DB
:10FB6000D054487E401C487630BDF0B50024054690
:10FB7000601C01078FB0090F08A8103108940170AC
:10FB8000601C0107090F08A8103141708178F9271E
:10FB90003940891C81701C2101A8FBF7EAFA6846EC
:10FBA00001791020014368460171029408A8049469
:10FBB0000594012607940690867103216846818486
:10FBC0003146103100940170314610314170817816
:10FBD000F7203940891C0140EF200140314368463D
:10FBE000817014210AA8FBF7C4FA09A80A90684694
:10FBF0000B9006861421448681862B4668880C3338
:10FC00000AAA01A9A2DF0FB0F0BD1FB501246B46FF
:10FC10001C701972019206C8684690471FBD00000B
:10FC200010B50446FBF772FE00280CD0A007C00EEA
:10FC3000002C0ADA2107090F08398908144A8900BB
:10FC40008918C96906E0134810BDA108124A890045
:10FC500089180968C1400806800F042811D20028BD
:10FC60000FD002280DD00D494B68E206D20E0120BC
:10FC70009040002B08D0620992008B5803438B50B0
:10FC800004E00448401C10BD05490860002010BD78
:10FC900000ED00E00120000000E400E09C200020D6
:10FCA00000E100E010B50248FFF7DAF810BD0000EF
:10FCB000A820002070B50D460A46014601240648DA
:10FCC000FBF73EFAEAB204490448FFF769F8002856
:10FCD00000D00024204670BD88550020A8200020B8
:10FCE000FFB50746806A81B0144600283DD0002544
:10FCF00038462030009033E00C20B96A68430E1873
:10FD0000B088801CFE2802D90C2005B0F0BD2288E6
:10FD10000299401C885420881622401C80B2208002
:10FD200002990A542088401C80B220800299411810
:10FD3000308800F01AFC2188401880B22080B288F8
:10FD4000002A0AD0B16800290FD0029BC018FBF727
:10FD5000F7F92088B188401820806D1C0098EDB21A
:10FD6000007BA842C8D80020CFE70720CDE70000DD
:10FD700070B504461248134D018A2182818A61823E
:10FD80000078002818D06879002815D100F0DAFC36
:10FD9000002811D028462030E06002200849207257
:10FDA00004202031C870064800212030FCF7B0FA4A
:10FDB000002804D1052000E00320A870002070BDB9
:10FDC0006C5200203420002070B5044611480426EF
:10FDD000018B2182818B618200780F4D002816D023
:10FDE0006879002813D100F0ADFC00280FD0284618
:10FDF0002030E06002202072064800212030C670CA
:10FE0000FCF786FA002804D10620A87000E0AE7046
:10FE1000002070BD6C52002034200020002803D048
:10FE20000249C860002070470E207047B0200020B3
:10FE30001CB50F4901910091694660DF0446009AA4
:10FE4000019882420AD00B490220FFF7F1FAFFF72E
:10FE500090FC0099421A08A1022004E0002C04D072
:10FE6000224612A10120FFF7E3FA20461CBD000044
:10FE7000E81F0020342D02005344483A5741524EA7
:10FE8000494E473A52414D2073697A652073686F35
:10FE9000756C642062652061646A757374656420A2
:10FEA000746F2030782578200D0A00005344483ABA
:10FEB0004552524F523A73645F626C655F656E6182
:10FEC000626C653A206572726F7220307825780D09
:10FED0000A00000070B50E4605461446142110466F
:10FEE000FBF747F901200021208021612173267250
:10FEF0006572002D00D0A072002070BD10B5FCF717
:10FF000091F810BDF8B5002903D08C070025002C0E
:10FF100001D00720F8BD0E4E0E4FB16072807360A5
:10FF200039680124214003D00A49254680310C60FC
:10FF3000094910DF002803D0002DEBD03C60F8BD4C
:10FF40003470FEF7CFFD1620FFF76AFEF8BD000003
:10FF5000B020002000E100E0FDFE01000148007833
:10FF600070470000B0200020014901204870704710
:10FF7000F41F0020F8B500270E460F770446032132
:10FF80000420090261188860FF250935675110793E
:10FF9000002802D01068007800E0F07E05231B02E4
:10FFA000E318D8611079012802D91068407803E07D
:10FFB000107B012801D9F07ED8613068002802D07A
:10FFC00004204860F8BD60590028FCD067513146D4
:10FFD000204600F0A9F90028F5D1B07EFF28F1D025
:10FFE000FFF762F8F8BDF8B504460021FEF737FCCC
:10FFF000060055D1207803284AD16079002847D0DF
:020000040002F8
:1000000021462E310020FBF7D0F820460122323065
:10001000520200210090FEF71BFC11204001251820
:1000200055212974AA2068742046522120308174F9
:10003000C174612101754122E71D4275FF377223AA
:10004000FA37BB75FB753A7679760E38FBF7A3F86D
:100050000146B876000AF876080C3877080E7877EB
:1000600020460E30FBF797F80146B877000AF8777C
:10007000080C2870080E687020461630FBF78BF8C5
:100080000246607801230099FDF738FA002060717C
:10009000002260781146FDF7D5F9002800D001262E
:1000A0003046F8BD70B52B4948680C46401C486086
:1000B000268880210E43054626806421FBF726F81A
:1000C000002902D101200643268032212846FBF771
:1000D0001DF8002903D1208802210843208019211E
:1000E0002846FBF713F8002903D120880421084390
:1000F000208014212846FBF709F8002903D1208825
:10010000082108432080A80703D120884021084304
:1001100020800A212846FAF7F9FF002904D1208817
:10012000FF210131084320800C212846FAF7EEFF19
:10013000002903D120881021084320800621284669
:10014000FAF7E4FF002903D120882021084320800A
:1001500070BD000020200020FEB51F4C0025A768C0
:10016000606802906846FDF7DDF90190FEF77AF9C4
:1001700006460198002822D000230098616817E005
:100180000E680A46864202D9301A086012E0801BC7
:10019000F31800261660D668D169B446002E07D041
:1001A000FE183602360A566066469660D5611546D8
:1001B0000029E5D128466160FEF7AAF906E0284645
:1001C000FEF7A6F9002801D1002E02D00298FCF714
:1001D000DFFD0020E070FEBD7820002001200249F4
:1001E000000508607047000000E200E010B50E4B0B
:1001F0005968002906D002680C68A24204D8A21AE5
:100200000A60C161586010BD0B4604E00B46C96925
:10021000121B002904D00C689442F7D3A41A0C6076
:100220000260C161D86110BD782000207CB50D4608
:100230000646002469460C706846FBF7F3FF01A8E8
:1002400000F0E6F900280DD00570466068460849C0
:100250000079487068460078FCF702F8FFF7BEFFA7
:1002600020467CBD684604240078FBF7F9FFF7E7D9
:1002700088200020F8B51D4D6C68002C34D01C4837
:1002800000274068A968401A0602360A2068B04272
:1002900018D8361AC7192246107CE46900280FD0F6
:1002A00000201074EB68002B07D0916950699847C3
:1002B000002805D0FBF7D0FE02E05169906988471D
:1002C000002CE3D129786878814206D1401CC0B265
:1002D0006870022801D10020687004490006800D72
:1002E00018310F50FFF77AFFF8BD0000782000208A
:1002F0000015014010B5144602460120002A0BD01B
:1003000008461368FF2106A20131FBF7CDFA01462A
:100310002046FCF73EFB10BD0021216010BD00000F
:100320005B253038645D000038B505221202831861
:1003300098696A461070087F0A7D904203D26A4627
:1003400012780C692254087F401CC2B20A770C7BD9
:10035000501C844202D98968085C03E00D7D854207
:1003600002D9C87ED86103E0A24201D3AA4201D2D9
:10037000012038BD002038BDFF221D3200238350EC
:100380008B8A8A68D25C8B8A5B1C8B82052109026E
:100390004018C261704770B58EB005461C21684692
:1003A000FAF7E7FE694608780C21084369460870A9
:1003B00000240194039404940594012608A906944A
:1003C0008E70022069460884601C0007000F103000
:1003D00007940877304610304877887FF921084025
:1003E000F721801C0840EF21084030436946887798
:1003F000142109A8FAF7BDFE08A8099007A80A90D9
:1004000069468E851420CC85088668882B1D09AA2C
:10041000A2DF0EB070BD1FB500226B461A701972B4
:1004200081680191827506C8684690471FBD00002B
:100430000078012801D1014988707047A42000206C
:10044000F0B50C46012185B005464902FFF714F8C6
:10045000032109026F180026002826D0FF2125312C
:100460002846FFF704F800281FD0FF2025302E5023
:1004700081208000B860A07E002801D10120686042
:100480000221684601700920C00129180868086027
:100490000390E17D68460172E0680190E67526767A
:1004A00006CC6846083C90472DE004212846FEF71C
:1004B000E3FF002827D0FF2109312846FEF7D7FFA8
:1004C000002820D021462846FFF73CFBE07D617ED6
:1004D000884218D1207E002807D0617EE268E0754E
:1004E0002069E060267666760AE0A07E002801D1C9
:1004F0000120686081208000B860E675617EE26856
:100500002046FFF782FBFF271D3739462846FEF7B6
:10051000AEFF00280FD0A08AA17D884204D22146D8
:100520002846FFF729FF06E0EE51A17D002902D001
:100530002046FFF770FFFF27453739462846FEF76C
:1005400096FF00280ED0EE51A07E002801D0012099
:100550002860E07D002805D0E675617EE2682046CF
:10056000FFF753FB05B0F0BD70470870000A4870F4
:100570000220704738B517A10320FEF753FF214929
:10058000214A488890420FD04A78204C521CD2B25F
:100590004A70237B934208D3091D75DF002803D0DE
:1005A000A169002900D0884738BD00254D70217C05
:1005B000002907D03B2176DF002803D0A16900295C
:1005C00000D0884761690029EED0684605708847E9
:1005D00038BD00004150503A494E464F3A7570645C
:1005E0006174655F74696D656F75745F68616E6471
:1005F0006C657220646973736F6E6E656374200D31
:100600000A00000064200020FFFF00003854002092
:1006100010B509494B788C785A1CD2B2944200D15B
:1006200000220C78944201D1002010BD027048686D
:1006300018214B43C01810BD88200020FFB583B09F
:1006400016460C9D0D9C1F460222009501940398AE
:1006500000F00CF8002807D13B46102231460095E7
:100660000194039800F002F807B0F0BDFFB583B025
:10067000074600200C9C8646268805463AE07868A6
:10068000A90042181188684681805188C1800022E3
:10069000694601A865DF002839D1684601780598C8
:1006A000814226D17046002801D0002200E00222BB
:1006B0002088891842180D998A4227D87146002946
:1006C0000AD1401C80B22080069A049911542088D7
:1006D000401C208001208646218806980A18694619
:1006E00001A865DF002812D16946208809784018E2
:1006F00020806D1C3888A842C1DC704600280AD0D2
:100700002088801B401E80B2FF2802D90C2007B031
:10071000F0BD069988550020F9E710B5002808D0EB
:100720000278002A05D0C279837912021A438A42DC
:1007300001D0092010BD4078FCF7DEFEC007F9D0DB
:10074000032010BD04480179002902D1007B002854
:1007500000D001207047000054200020F8B5154655
:100760001C460E4607460722FCF772FF0246082881
:1007700005D1032231463846FCF76AFF0246002ABB
:1007800001D00FA10CE018A10320FEF74BFE6B4631
:10079000224629463846FDF789F9020007D019A1FB
:1007A0000320FEF745FE3846FCF714FFF8BD1E4A4D
:1007B0001EA11320FEF73CFE23A11320009AF0E7B0
:1007C0004150503A494E464F3AB4B4BDA8CEC4BC8D
:1007D000FECAA7B0DC20202066665F726573756C68
:1007E000743A2564210000004150503A494E464F6A
:1007F0003AB4F2BFAACEC4BCFEB3C9B9A6210D0A51
:10080000000000004150503A494E464F3AA3A1A380
:10081000A1CEC4BCFED0B4C8EBCAA7B0DCA3BA2832
:100820002564290A0000000090080200CFF2CEC41F
:10083000BCFED0B4C8EBB5C4CAFDBEDDCEAAA3BA17
:100840000A25730A00000000D2D1BEADD0B4C8EBB7
:10085000CAFDBEDDB3A4B6C820696E6465783A25CA
:1008600064200D0A00000000CC200020EC200020B5
:100870000100000705FF00000030004003000000F9
:10088000FFFFFFFF03FF000000000040000000002A
:1008900073797363666720696E69740D0A72746395
:1008A000202D2D73657420323031343130313331A5
:1008B00037343735300D0A737973636667206164A6
:1008C000642053724E6D20574C574C574C574C5721
:1008D0004C574C0D0A73797363666720616464201A
:1008E0004D4C422320463358353031373041473361
:1008F00046514A59430D0A737973636667206164F0
:1009000064204D6F6423204E47344A320D0A7379B8
:100910007363666720616464205265676E20434894
:100920002F410D0A73797363666720616464204FF9
:10093000505453206950686F6E65372C322F5749D9
:1009400046492642542F4750532F554D54532F5448
:10095000445343444D412F4C54452F4E414E442C5B
:1009600053495A453D3634472F52414D2C53495A2D
:10097000453D31472F48534E472C434F4C4F523D36
:10098000432C52534B553D3078303030303030307E
:1009900035203078303030303030303420307830DE
:1009A000303030303030302030783030303030300F
:1009B00030302C415254574F524B3D434830323027
:1009C0002D30303131330D0A7379736366672061DE
:1009D00064642053774268203078303030303031D2
:1009E0003431203078303030303030303020307892
:1009F00030303030303030302030783030303030BF
:100A00003030300D0A737973636667206164642047
:100A100050414356203078393146393146383020FC
:100A2000307842464631463931462030784638449F
:100A300031353433322030783346454645444335EA
:100A400020307836314436314436302030783430F6
:100A500032394436314420307843343735324145D9
:100A600031203078334646303033363320307830DA
:100A7000303030303030302030783030303030303E
:100A800030302030784638443135343332203078B5
:100A9000334645464544433520307839314639316F
:100AA00046383020307843303031463931462030B6
:100AB0007846384431353433322030783346454631
:100AC00045444335203078303030303030303020BD
